:020000040800F2
:10000000B0060020C1010008711F0008951C0008FF
:100010006D1F0008B5020008ED2400080000000074
:10002000000000000000000000000000791F000830
:10003000B902000800000000751F0008A520000894
:10004000DB010008DB010008DB010008DB01000820
:10005000DB010008DB010008BD020008DB0100082D
:10006000DB010008DB010008DB010008DB01000800
:10007000DB010008DB010008DB010008DB010008F0
:10008000DB010008DB010008DB010008DB010008E0
:10009000DB010008DB010008DB010008DB010008D0
:1000A000DB010008DB010008DB010008DB010008C0
:1000B00075210008DB010008DB010008DB010008F6
:1000C000DB010008DB010008DB010008DB010008A0
:1000D000DB010008D5240008DB010008E12400084A
:1000E000DB010008DB010008DB010008DB01000880
:1000F000DB010008DB010008DB010008DB01000870
:10010000DB010008DB010008DB010008DB0100085F
:10011000DB010008DB010008DB010008DB0100084F
:10012000DB010008DB010008DB010008DB0100083F
:10013000DB010008DB010008DB010008DB0100082F
:10014000DB010008DB010008DB010008DB0100081F
:10015000DB010008DB010008DB010008DB0100080F
:10016000DB010008DB010008DB010008DB010008FF
:10017000DB010008DB010008DB01000800000000D3
:10018000DB010008DB010008DB010008DB010008DF
:10019000DB010008DB010008DB010008DB010008CF
:1001A000DB010008DB010008DB010008DFF80CD0F0
:1001B00000F068F800480047B9250008B0060020A4
:1001C0000648804706480047FEE7FEE7FEE7FEE7F1
:1001D000FEE7FEE7FEE7FEE7FEE7FEE76121000837
:1001E000AD0100082DE9F05F0546002092469B46D0
:1001F00088460646814640241BE02846414647463D
:10020000224600F02FF853465A46C01A914110D3A7
:1002100011461846224600F016F82D1A67EB010821
:100220004F4622460120002100F00DF817EB00098F
:100230004E41201EA4F10104DFDC484631462A4627
:100240004346BDE8F09F202A04DB203A00FA02F181
:10025000002070479140C2F1200320FA03F31943B4
:1002600090407047202A04DB203A21FA02F0002156
:10027000704721FA02F3D040C2F1200291400843B6
:10028000194670471CB50948009009480190054679
:10029000009C06E0E06840F0010394E807009847FE
:1002A0001034AC42F6D3FFF785FF0000043300089A
:1002B00024330008FEE700007047000040F2C80148
:1002C000C2F20001012201200A7000F0CBB8000048
:1002D00070B584B09446DDE908548DF80000FD2027
:1002E0008DF801004FEA1C208DF80300280E8DF8D0
:1002F0000600280C8DF80700280ADDE90AE28DF8CF
:1003000008006B2000268DF802108DF80C0068465E
:100310000D218DF80F60ADF80D608DF804C08DF8DB
:1003200005308DF809508DF80A408DF80BE002F089
:10033000A7FF04B070BD000010B584B08DF80000B8
:10034000F620DDE906EC8DF80100100A8DF80300B7
:100350006B2000248DF802108DF804208DF8070022
:10036000684608216246039402948DF805308DF8A2
:1003700006E002F085FF04B010BD000072B600BFB9
:10038000FEE7000070B5866D044600F05BF994F856
:100390003510022928D105462068216C026822F018
:1003A00016020260426922F08002426109B9A16C22
:1003B00019B1016821F008010160016821F0010113
:1003C000016000BF20680068C00715D000F03AF94E
:1003D000401B0628F6D320206065032084F83500F2
:1003E000002184F8341070BD802060650120002158
:1003F00084F8341070BD00BFE06D3F2101FA00F0B9
:10040000B060012084F835000020002184F8341009
:1004100070BD000090F83510022909D1052180F83F
:1004200035100068016821F001010160002070476B
:100430008021416501207047B0B5044600F002F903
:10044000054640F21400C2F200000078611C18BF9B
:10045000044400BF00F0F6F8401BA042FAD3B0BD40
:100460007047000043F61441C4F201010A680242D9
:1004700014BF08607047FFF7F3BF00002DE9F04F8D
:1004800082B000F13E4707F1FF77860546EA9727DD
:1004900042F20046C4F202060A2243F6004EB0427F
:1004A00008BF0922C4F2010E092F38BF3A460026C0
:1004B00000274FF00008009209E000BF08F1010892
:1004C0000237B8F1100F06F1040600F0A3800D68A2
:1004D000012202FA08F415EA0409EFD0D1F804B0B9
:1004E00003220BF0030CACF10105BA40012D6FEAB9
:1004F000020A0FD88268CD6802EA0A02BD402A4388
:1005000082604268A243CBF3001404FA08F4224349
:10051000426005E0BCF1030F02D14FF0030C1EE076
:10052000C2688C6802EA0A02BC402243BCF1020F96
:10053000C26014D16FF0030202EA58020244D2F8FA
:1005400020C006F01C040F230D69A3402CEA03030E
:10055000A5402B431362D1F804B00BF0030C0268E2
:100560000CFA07F302EA0A021A431BF4403F026046
:10057000A4D0002243F644030192C4F202031A6895
:100580004FF6084C42F480421A601A68CFF6FF7C9E
:1005900002F480420192019A28F00302724452F858
:1005A0000C3006F00C050F24AC40A343009C04FA69
:1005B00005F52B4342F80C30DEF808204B6842EA80
:1005C000090543F60C4CDC0258BF22EA0905CEF8B7
:1005D0000850C4F2010CDCF800209C0242EA090534
:1005E00058BF22EA0905CCF80050DEF804209C032D
:1005F00042EA090558BF22EA0905CEF80450DEF8A0
:100600000020DB0342EA090558BF22EA0905CEF8BB
:10061000005053E702B0BDE8F08F000000690840C9
:1006200018BF012070470000426902EA01039143AC
:1006300041EA034181617047002A08BF09048161D2
:100640007047000040F2A820C2F200000068704726
:1006500040F2140040F2A821C2F20000C2F20001F0
:1006600000780A68104408607047000080B543F6BF
:100670000040C4F20200016841F4007101600168A9
:1006800041F480610160016841F4807101600320E0
:1006900000F086F80F2000F005F800F027F80020A1
:1006A00080BD000070B540F21406C2F2000640F2B0
:1006B0001C013278C2F200014FF47A730968B3FB6F
:1006C000F2F20446B1FBF2F1084600F09FFB0F2C5A
:1006D0004FF0010508D838B94FF0FF30214600220D
:1006E000002500F031F87460284670BD82B000200B
:1006F00043F640010190C4F202014A6842F480428C
:100700004A604A6802F480420192019A00900868A7
:1007100040F080500860086800F080500090009819
:1007200002B07047002848BF704700F01F01012247
:1007300002FA01F11C2202EAD0004EF20012CEF2BF
:10074000000281507047000010B54EF60C5CCEF2EE
:10075000000CDCF80030C3F3022E8EF00704042CEA
:1007600028BF0424BEF103034FF0FF3E0EFA04F449
:1007700038BF0023A14399400EFA03F39A43114373
:1007800000F00F0200F160430901043A03F56443ED
:100790006244002848BF02F10C03197010BD00002C
:1007A0004EF60C51CEF200010A684FF6FF031A40D4
:1007B00060F30A2242F0806040F0FD7008607047EC
:1007C00070B582B00020019043F64000C4F20200F0
:1007D0000168402641F0805101600068C4F20E2695
:1007E00000F080500190019847F204050120C4F206
:1007F00000053060FFF726FF044600BF2868C003ED
:1008000006D4FFF71FFF001BB0F57A7FF6D90EE084
:1008100001207060FFF716FF044600BF28688003C0
:1008200008D4FFF70FFF001BB0F57A7FF6D903203D
:1008300002B070BD002002B070BD0000002804BFEF
:10084000012070472DE9F04143F60808C4F2020880
:100850000446D8F8F8030D4600F00F00884207D28E
:1008600088F8F853D8F8F80300F00F00A84277D1C1
:100870002068810717D5410705D5D8F8001041F445
:10088000E051C8F80010010705D5D8F8001041F470
:100890006041C8F80010D8F80010A26821F0F001FB
:1008A0001143C8F80010C00740D1D8F8F80300F091
:1008B0000F00A84207D988F8F853D8F8F80300F0D9
:1008C0000F00A8424CD12068410707D5D8F8001086
:1008D000E26821F4E0511143C8F80010000708D580
:1008E000D8F80000216920F4604040EAC100C8F84F
:1008F000000000F07DF8D8F8001043F2EC22C1F3BC
:100900000311C0F60002515C40F21C0220FA01F112
:1009100040F21800C2F200000068C2F2000211604A
:10092000FFF7C0FE0020BDE8F08100BF6068811EB7
:10093000022907D258F8081C89015CBF0120BDE8D4
:10094000F08111E0012807D158F8081C89035CBF29
:100950000120BDE8F08107E058F8081C890703D49E
:100960000120BDE8F08100BFD8F8001021F003019C
:100970000843C8F80000FFF765FE064641F28837D5
:10098000D8F80000616800F00C00B0EB810F8CD04B
:10099000FFF758FE801BB842F2D90320BDE8F08172
:1009A00040F21C0043F60801C2F20000C4F202014A
:1009B0000068096843F2FC22C1F38221C0F60002FC
:1009C000515CC8407047000040F21C0043F608012B
:1009D000C2F20000C4F202010068096843F2FC227E
:1009E000C1F34231C0F60002515CC84070470000BC
:1009F00010B543F60404C4F20204606800F00C0071
:100A000008280BD0042819BF42F20040C0F2F400BD
:100A100047F64000C0F27D1010BD00BF206821687D
:100A20002368490247F64001C0F27D1100F03F0201
:100A3000C3F388105CBF42F20041C0F2F401A1FB95
:100A400000010023FFF7CEFB21680222C1F3014120
:100A500002EB4101B0FBF1F010BD0000002804BF23
:100A6000012070472DE9F04182B00446007843F63A
:100A70000006C007C4F202060CD0B06800F00C00FB
:100A8000042840F081803068800303D56068002826
:100A900000F06A81207880071BD5B06810F00C0F39
:100AA00009D0B06800F00C00082840F0878070681A
:100AB000400200F183803068800703D5E068012898
:100AC00040F052813068216920F0F80040EAC1000E
:100AD00030602078000713D4207840072AD4A56915
:100AE000002D00F03C81B06800F00C00082840F0B8
:100AF000A180012D40F01081012002B0BDE8F081FD
:100B00006069002840F20000C4F2472000F07E80B7
:100B10000121C0F8801EFFF795FD0546706F800724
:100B2000DAD4FFF78FFD401B0228F7D9032002B06B
:100B3000BDE8F081306C5FEAC0080AD40020019063
:100B4000306C40F080503064306C00F08050019088
:100B5000019847F20007C4F200073868C00547D47F
:100B6000386840F480703860FFF76CFD054600BFC0
:100B70003868C0053CD4FFF765FD401B0228F7D953
:100B8000032002B0BDE8F081B06800F00C00082836
:100B900003D1706840023FF576AF6068B0F5803FE2
:100BA00007D0B0F5A02F40F09B80306840F4802043
:100BB0003060306840F4803030609BE0E0680028AE
:100BC0005CD00020C4F2472001210160FFF73AFD0C
:100BD000054600BF306880073FF574AFFFF732FD70
:100BE000401B0228F6D9032002B0BDE8F08100BF07
:100BF000A068012805D0052854D1306F40F00400CA
:100C00003067306F40F00100306755E00021C0F8D8
:100C1000801EFFF717FD0546706F80077FF55CAFFC
:100C2000FFF710FD401B0228F6D9032002B0BDE8F3
:100C3000F08100BF0027C4F2472700203866FFF785
:100C400001FD022D05460DD13068800140F19080F4
:100C5000FFF7F8FC401B02284FF00300F4D902B064
:100C6000BDE8F0813068800179D5FFF7EBFC401BCF
:100C700002284FF00300F5D9F1E700BF0020C4F2CD
:100C8000472000210160FFF7DDFC05463068800742
:100C90007FF51FAFFFF7D6FC401B02284FF0030083
:100CA000F4D9DCE7316F002821F001013167316FA1
:100CB00021F0040131677DD0FFF7C4FC054641F205
:100CC000883700BF306F800700F18680FFF7BAFCDD
:100CD000401BB842F6D9032002B0BDE8F08100BF46
:100CE0003168002821F480313160316821F480219D
:100CF00031607BD0FFF7A6FC054600BF306880035B
:100D00003FF5C8AEFFF79EFC401B6428F6D90320D0
:100D100002B0BDE8F08100BF7068E16900F48002B4
:100D20008A4221D1216A00F03F028A421CD147F653
:100D3000C071626A0140B1EB821F15D1A16A4FF602
:100D4000FF73C903994300F44032A1F580318A4210
:100D50000AD1E16A00F07060B0EB016F04D10020AD
:100D600002B0BDE8F08100BF012002B0BDE8F08113
:100D700004F11C052FCD084340EA8210D9034FF639
:100D8000FF729143A1F5803140EA0560084370602D
:100D900001203866FFF756FC044600BF306880012A
:100DA000DDD4FFF74FFC001B02284FF00300F5D9FC
:100DB00055E700BFFFF746FC054641F2883700BF04
:100DC000306F800708D5FFF73DFC401BB8424FF05D
:100DD0000300F5D943E700BFB8F1000F3FF57FAE40
:100DE000306C20F08050306479E600BFFFF72AFCB9
:100DF000054600BF306880037FF54CAEFFF722FC4C
:100E0000401B64284FF00300F4D928E7411E00205E
:100E1000B0EB116F1CBF012070474EF21002CEF2F2
:100E2000000251604EF62351CEF20001F0230B7008
:100E30000721906011607047704700007047000004
:100E400090F83C20012A4FF0020254D010B580F8EF
:100E50003D200268D2F804E0D2F808C00C682EF0F9
:100E60007003234341F2FF74C4F20004A2425360B2
:100E70000EDC40F2FF73C4F200039A4216DCB2F1BA
:100E8000804F2BD040F20043C4F2000324E000BFA7
:100E900040F2FF33C4F201039A4213DC41F600032F
:100EA000C4F200039A4219D0002313E040F6000375
:100EB000C4F200039A4211D040F60043C4F200038A
:100EC0000AE000BF44F20003C4F201039A4205D0D5
:100ED00040F20043C4F201039A4204D149682CF065
:100EE0008003194391600121002280F83D1080F8B1
:100EF0003C20BDE81040104670470000002804BFA9
:100F00000120704710B5044690F83D0028B9002034
:100F100084F83C00204600F01FF8022084F83D00D1
:100F20002068211D01F032F9012084F8460084F880
:100F30003E0084F83F0084F8400084F8410084F8C3
:100F4000420084F8430084F8440084F8450084F8A3
:100F50003D00002010BD00000068B0F1804F18BFB8
:100F6000704780B582B00020019043F64000C4F283
:100F700002000168002241F00101016000680121C6
:100F800000F00100019001981C20FFF7DDFB1C2000
:100F900002B0BDE88040FFF7C5BB000090F83D10EF
:100FA00001291CBF01207047022180F83D10006814
:100FB00041F2FF72C168C4F20002904241F00101A7
:100FC000C1600DDC40F2FF71C4F20001884215DC03
:100FD000B0F1804F2AD040F20041C4F2000123E07A
:100FE00040F2FF31C4F20101884213DC41F60001F6
:100FF000C4F20001884219D0002113E040F600013C
:10100000C4F20001884211D040F60041C4F2000150
:101010000AE000BF44F20001C4F20101884205D099
:1010200040F20041C4F20101884206D1816801F01A
:101030000701062904BF00207047016841F0010143
:10104000016000207047000090F83C20012A4FF01A
:10105000020200F0C58080B580F83D20D0F800C0C5
:101060004FF67772DCF8083023EA0202CCF8082049
:101070000B684F2B28DC1F2B44DD202B45D0302B59
:1010800043D0402B40F0AE80D1F804E0C968DCF8D2
:101090002030DCF8202022F00102CCF82020DCF8FF
:1010A000182022F0F00242EA011123F00A0242EA7B
:1010B0000E02CCF81810CCF82020DCF8081041F013
:1010C000470121F0300180E06F2B27DDB3F5005F91
:1010D00048D0B3F5805F7AD0702B40F08380D1E99F
:1010E00001E3C968DCF8082043EA0E0322F47F42DA
:1010F00043EA01211143CCF80810DCF8081041F054
:10110000770162E00BB1102B6CD1DCF8081021F0F4
:101110007001194341F0070157E000BF502B35D053
:10112000602B5FD1D1F804E0C968DCF82030DCF82E
:10113000202022F01002CCF82020DCF8182022F425
:10114000704242EA013123F0A00242EA0E12CCF8CA
:101150001810CCF82020DCF8081041F0670121F0CD
:10116000100132E0D1E901E3C968DCF8082043EA64
:101170000E0322F47F4243EA01211143CCF8081008
:10118000DCF8081041F480411FE000BFD1F804E012
:10119000C968DCF82030DCF8202022F00102CCF80D
:1011A0002020DCF8182022F0F00242EA011123F09E
:1011B0000A0242EA0E02CCF81810CCF82020DCF823
:1011C000081041F0570121F02001CCF8081000224E
:1011D000012180F83D10002180F83C10BDE88040DE
:1011E000104670470122F3E77047000070B50446CF
:1011F0000068C5680669B10716D515F0020113D05D
:101200006FF002010161012121778069800703D01D
:101210002046FFF7E9FF05E0204600F08FF8204662
:1012200000F08EF800202077700719D515F0040023
:1012300016D020686FF004010161022121778069D6
:1012400010F4407F04D02046FFF7CEFF06E000BF39
:10125000204600F073F8204600F072F80020207756
:10126000300717D515F0080014D020686FF008017A
:10127000016104212177C069800703D02046FFF770
:10128000B3FF05E0204600F059F8204600F058F87A
:1012900000202077F00619D515F0100016D0206830
:1012A0006FF01001016108212177C06910F4407FBF
:1012B00004D02046FFF798FF06E000BF204600F06C
:1012C0003DF8204600F03CF800202077F00718BFDA
:1012D00015F0010002D1300609D412E020686FF049
:1012E00001010161204600F02DF8300609D515F006
:1012F000800006D020686FF0800101612046FFF772
:101300009BFD700609D515F0400006D020686FF0EF
:1013100040010161204600F017F8B00658BF70BDCB
:1013200015F0200008D021686FF0200220460A61E5
:10133000BDE87040FFF782BD70BD0000704700003F
:1013400070470000704700007047000070470000C1
:1013500070470000B0B582B0044600680168C368F9
:10136000426901F02F05202D03F0200506D12DB193
:10137000204602B0BDE8B04000F0B4BF5FEA017C97
:101380001EBF02F0010E03F4907212EB0E0243D165
:10139000226BCD0618D5012A16D113F0100213D0F6
:1013A0000021019101680191416801910199406911
:1013B00040063BD4A08DE18DE28D002A18BF884203
:1013C00040F0F28102B0B0BD0A0640F1E78013F0B0
:1013D000800200F0E38094F841102129F2D1A16845
:1013E000B1F5805F03D12169002900F06382216A91
:1013F0004A1C226209784160E18C01390A04E184C7
:10140000E0D1C16821F08001C160C16841F04001B4
:10141000C16002B0B0BD00BFCA0718BF13F480722C
:1014200040F0D0804A0700F1D380D8E0E06B01683B
:1014300049688AB2002AC5D0A38D9A42C2D2E185FA
:10144000C069B0F5807F00F09D80206850E8030FF0
:10145000216820F4807041E80302DAB1206850E886
:10146000030F216820F4807041E8030292B12068E4
:1014700050E8030F216820F4807041E803024AB16C
:10148000206850E8030F216820F4807041E80302CF
:10149000002ADAD1206850E8050F216820F0010009
:1014A00041E80502BAB3206850E8050F216820F032
:1014B000010041E8050272B3206850E8050F216879
:1014C00020F0010041E805022AB3206850E8050F2A
:1014D000216820F0010041E80502002ADAD11AE073
:1014E000206850E8050F216820F0400041E805021F
:1014F000DAB1206850E8050F216820F0400041E88B
:10150000050292B1206850E8050F216820F04000E4
:1015100041E805024AB1206850E8050F216820F033
:10152000400041E80502002ADAD1202084F8420078
:1015300000202063206850E8030F216820F010008D
:1015400041E80302DAB1206850E8030F216820F077
:10155000100041E8030292B1206850E8030F2168AF
:1015600020F0100041E803024AB1206850E8030F60
:10157000216820F0100041E80302002ADAD1E06B74
:10158000FEF700FF02206063A08DE18D401A81B25A
:10159000204602B0BDE8B040FFF7D8BE49067FF54F
:1015A00011AF13F040013FF40DAFC16821F04001CD
:1015B000C1602021204684F8411002B0BDE8B0404F
:1015C00000F066BB626C42F0010262644A0706D515
:1015D000BEF1000F03D0626C42F0020262648A071F
:1015E00006D5BEF1000F03D0626C42F004026264C3
:1015F000BCF1000F06D55EEA050203D0626C42F032
:1016000008026264626C002A3FF4DCAE890604D5ED
:101610001DB1204600F066FE20684069616C00F054
:10162000400001F00801401800F0B680206850E842
:10163000030F216820F4907041E80302BAB32068D8
:1016400050E8030F216820F4907041E8030272B360
:10165000206850E8030F216820F4907041E80302ED
:101660002AB3206850E8030F216820F4907041E805
:101670000302002ADAD11AE0206850E8050F216839
:1016800020F0010041E80502DAB1206850E8050FBA
:10169000216820F0010041E8050292B1206850E87D
:1016A000050F216820F0010041E805024AB12068D9
:1016B00050E8050F216820F0010041E80502002AEA
:1016C000DAD1206B012824D1206850E8030F21686B
:1016D00020F0100041E80302DAB1206850E8030F5F
:1016E000216820F0100041E8030292B1206850E820
:1016F000030F216820F0100041E803024AB120687E
:1017000050E8030F216820F0100041E80302002A8E
:10171000DAD1202084F8420000202063206840694C
:10172000400640F1C180206850E8050F216820F094
:10173000400041E80502DAB1206850E8050F216851
:1017400020F0400041E8050292B1206850E8050F02
:10175000216820F0400041E805024AB1206850E8C5
:10176000050F216820F0400041E80502002ADAD187
:10177000E06B002800F0988042F2D921C0F6000109
:101780000165FEF747FE00283FF41CAEE06B016DDB
:1017900002B0BDE8B04008472046FFF7D9FD002061
:1017A000606402B0B0BD00BF401A00BF216851E8BC
:1017B000031F226821F4907142E80313BBB3216830
:1017C00051E8031F226821F4907142E8031373B3B8
:1017D000216851E8031F226821F4907142E8031345
:1017E0002BB3216851E8031F226821F4907142E86D
:1017F0000313002BDAD11AE0216851E8051F226893
:1018000021F0010142E80513DBB1216851E8051F11
:10181000226821F0010142E8051393B1216851E8E3
:10182000051F226821F0010142E805134BB1216830
:1018300051E8051F226821F0010142E80513002B41
:10184000DAD1202184F8421000212163216851E877
:10185000031F226821F0100142E80313DBB1216865
:1018600051E8031F226821F0100142E8031393B1ED
:10187000216851E8031F226821F0100142E8031398
:101880004BB1216851E8031F226821F0100142E8A2
:101890000313002BDAD1022281B22046626302B028
:1018A000BDE8B040FFF752BD204602B0BDE8B040F1
:1018B000FFF74EBD216A31F8022B6FF35F224260C1
:1018C000216299E5002804BF0120704710B5044645
:1018D00090F8410028B9002084F84000204600F02C
:1018E00021F8242084F841002068C16821F40051C7
:1018F000C160204600F076FD2068016921F4904126
:101900000161416921F02A014161C16841F400513E
:10191000C16000202021606484F8411084F84210E6
:10192000606310BD80B586B0006844F20042C4F226
:10193000000200219042CDE90411CDE9021101918C
:101940003CD044F60001C4F20001884260D041F26C
:101950000001C4F20101884240F08D80002043F66E
:1019600030010090C4F202014A6942F010024A615B
:101970004A6902F010020092009A00900A6842F050
:1019800001020A60096801F00101009100994FF419
:10199000C06101910221CDE90210032004900720CB
:1019A00005900020C4F2020001A9FEF767FD252082
:1019B00001210022FEF7C8FE25205AE043F6300040
:1019C0000091C4F20200026942F40032026102692D
:1019D00002F400320092009A0091026842F0010283
:1019E0000260006800F00100009000980C20019057
:1019F0000220CDE902010320049007200590002079
:101A0000C4F2020001A9FEF739FD06B080BD00BF97
:101A1000002043F630010090C4F202010A6942F44A
:101A200080220A610A6902F480220092009A0090E2
:101A30000A6842F002020A60096801F0020100919E
:101A400000994FF4406101910221CDE90210032079
:101A50000490072005900020C4F2020000F5806089
:101A600001A9FEF70BFD272001210022FEF76CFEE5
:101A70002720FEF757FE06B080BD000090F84230E8
:101A8000202B07D100294FF0010318BF002A05D1F0
:101A90001846704702231846704700BF00230363AF
:101AA000816222218285C285436480F842100169E7
:101AB000006819B1C16841F48071C160416941F0A9
:101AC00001014161C16841F02001C16018467047C1
:101AD000006844F60001C4F20001884218BF704754
:101AE00040F22900C2F20000007848B980B540F207
:101AF0008C20C2F20000007800F0FAFCBDE88040C3
:101B000040F2A41040F28C21C2F20000C2F20001A7
:101B10000122FFF7B3BF00002DE9F041044690F821
:101B2000410020281CBF0220BDE8F0810D4600299D
:101B30004FF0010000F0AA801646002A08BFBDE859
:101B4000F081002060642120984684F84100FEF76F
:101B500079FDA684E684A1680646B1F5805F02D1CE
:101B60002069002862D02F460025E08C002861D033
:101B700018F1010018D0B8F1000F37D1216808E042
:101B800017F8010B4860E08C0138E084E08C0028F5
:101B900051D00868000673D5002FF1D135F8020B3B
:101BA00000276FF35F20EDE7216802E00868000678
:101BB00009D40868000606D4086800065CBF0868F7
:101BC0005FEA0060F2D51FB117F8010B05E000BF16
:101BD00035F8020B00276FF35F204860E08C013876
:101BE000E084E08C0028E4D125E000BF216800BF3C
:101BF0000868000608D4FEF725FD801B404541D843
:101C00002168C868F4E700BF17B117F8010B04E0BA
:101C100035F8020B00276FF35F204860E08C013835
:101C2000E084E08C0028E3D105E000BF0027E08CD1
:101C300000289DD12168086840061FD4B8F1000F24
:101C40001ED018F101000FD10868400616D40868AC
:101C5000400613D40868400610D4086840064FF0C8
:101C60000000F1D50FE000BFFEF7ECFC801B404503
:101C700008D82068C16800684006F5D5002002E059
:101C8000FEF7E0FC0320202184F84110BDE8F0813C
:101C900070470000FEE700002DE9F04F87B00024F8
:101CA00043F6300006940194C4F20200016840F249
:101CB000000941F0100101600168C4F2020901F05D
:101CC0001001019101990194016809F5805541F0D5
:101CD000800101600168012201F0800101910199F8
:101CE00001940168082641F00101016001684FF08C
:101CF000010B01F00101019101990194016841F08A
:101D000002010160016801F0020101910199019451
:101D1000016841F040010160016801F0400101915A
:101D200001990194016841F004010160016801F02A
:101D30000401019101990194016841F008010160D9
:101D40000068082100F00800019001982846FEF77D
:101D500073FC484620210122FEF76EFC09F5C058AD
:101D6000404608210122FEF767FC09F54067384626
:101D700080210122FEF760FCCDE9026B02AE4FF03C
:101D8000030A284631460494CDF814A0FEF776FBEA
:101D90004FF40410CDE9030448463146CDF808B0AD
:101DA000FEF76CFB2020CDE9020B48463146CDE919
:101DB000044AFEF763FB082540463146CDE9025B45
:101DC000CDE9044AFEF75AFB4FF48050CDE90204F6
:101DD000484631460494FEF751FB4FF4A050CDE93C
:101DE000020409F5006031460494FEF747FB3846CB
:101DF000314602950825CDE90344FEF73FFB8020DC
:101E0000CDE9020B38463146CDE9044AFEF736FBF0
:101E10004FF42850CDE90204404631460494FEF7C1
:101E20002DFB09F580603146CDE902540494FEF79C
:101E300025FB062002210022FEF786FC0620FEF785
:101E400071FC07B0BDE8F08F80B586B040F2CC00E1
:101E50000021C2F200004FF08042592340F2E73CDB
:101E60000591CDE90311CDE90011C0E90023C0E9D6
:101E7000021C01618161FFF741F8002818BFFEF7DD
:101E80007DFA4FF48050029040F2CC00C2F2000084
:101E900002A9FFF7D9F8002818BFFEF76FFA40F241
:101EA000CC00C2F200006946FEF7CAFF002818BF46
:101EB000FEF764FA06B080BD80B540F2141041F21E
:101EC0000001C2F20000C4F2010100234FF00C0C2B
:101ED0004FF4E13280E80E00C0E90333C0E905C3E6
:101EE000C361FFF7EFFC002808BF80BDBDE880405C
:101EF000FEF744BA80B540F25C1044F20041C2F2F1
:101F00000000C4F2000100234FF00C0C4FF4E1324A
:101F100080E80E00C0E90333C0E905C3C361FFF7E1
:101F2000D1FC002808BF80BDBDE88040FEF726BA7E
:101F300080B540F2A41044F60001C2F20000C4F2E1
:101F4000000100234FF00C0C4FF4E13280E80E004A
:101F5000C0E90333C0E905C3C361FFF7B3FC002840
:101F600008BF80BDBDE88040FEF708BAFEE700006C
:101F7000FEE700007047000070470000A0F1F0028B
:101F800001460F2A4FF0010006D800FA02F248F28B
:101F900001131A4218BF70470F2903D01F291CBF15
:101FA0000020704770470000B0FA80F04009704789
:101FB00070B541F60004C4F20204A4F5A050082153
:101FC000FEF72CFBB0FA80F040F28D264009C2F2F9
:101FD0000006307020464FF40051FEF71FFBB0FAA8
:101FE00080F04009707020464FF40061FEF716FB48
:101FF000B0FA80F04009B07020464FF40071FEF74F
:102000000DFBB0FA80F04009F070A4F540600821A3
:10201000FEF704FBB0FA80F04009A4F5805530715A
:1020200028464FF48051FEF7F9FAB0FA80F04009E3
:10203000707128464FF48061FEF7F0FAB0FA80F034
:102040004009B071A4F5C0504FF48051FEF7E6FA94
:10205000B0FA80F0410930787278B378F57840EAC8
:10206000420040EA8300327940EAC50040EA0210AB
:102070007279B37940EA421040EA831040EAC11015
:10208000C0B2F17170BD000040F28D20C2F20000BC
:102090004178827883794079591A801A00EB41009F
:1020A00070470000FEF7D4BA80B592B0002043F626
:1020B0004001CDE90A00CDE908000590CDE9030013
:1020C000CDE901000090C4F202010A6842F080529A
:1020D0000A60096801F0805100910099009047F270
:1020E0000000C4F20000016841F440410160006852
:1020F0004FF4800100F440400090009801200690C9
:102100004FF480300D910F21079002200E91D821BD
:102110000C90CDE90F100420119006A8FEF79EFC4C
:1021200010B172B6FEE700BFFEF74AFB10B172B6FF
:10213000FEE700BF0F2001900220029000200390D4
:102140004FF4A05004904FF48050059001A8052151
:10215000FEF774FB10B172B6FEE700BF12B080BD8F
:102160004EF68850CEF20000016841F47001016023
:102170007047000080B501F045F840F2CC00C2F293
:102180000000BDE88040FFF731B8000010B540F610
:10219000FF3E0368C4F2000E40F2004C7045C4F2EA
:1021A000010C27DCB0F1804F31D040F20042C4F284
:1021B000000290422BD040F60002C4F2000290428E
:1021C00025D041F6FF72C4F20002904229DC70452E
:1021D0003CDCB0F1804F5FD040F20042C4F200021C
:1021E000904259D040F60002C4F20002904253D00F
:1021F00056E000BF40F60042C4F20002904206D012
:10220000604504D00022C4F201029042D9D14A684C
:1022100023F07003134341F6FF72C4F200029042B0
:10222000D5DD43F6FF72C4F20102904222DC42F295
:102230000002C4F2000290422ED00022C4F2010239
:10224000904229D0604527D02AE000BF40F60042E6
:10225000C4F2000290421FD041F60002C4F2000214
:10226000904219D041F60042C4F20002904213D0CD
:1022700016E000BF44F20002C4F2010290420BD00B
:1022800044F60002C4F20102904205D044F200423A
:10229000C4F20102904203D1CA6823F4407313438D
:1022A00023F080024B69D1F800E08C681A43026089
:1022B000C46240F48062C0F828E0624504BF096946
:1022C0000163012141610169C90708BF10BD0169AE
:1022D00021F00101016110BD806B0021C185C18425
:1022E000FFF736B881B090F84210222921D18368D7
:1022F0000246B3F5805F09D152F8281F52F8183C06
:10230000002B63D003685B680AE000BF52F8281F07
:1023100013B90369002BF5D003685B6803F07F03F2
:102320000B70116801311160C18D01390A04C1853A
:1023300002D001B0704700BF0168CA6822F02002D5
:10234000CA60CA6822F48072CA604A6922F0010237
:102350004A61202180F8421000214163026B012A6A
:102360003CD10163016851E8031F026821F01001AC
:1023700042E80313DBB1016851E8031F026821F052
:10238000100142E8031393B1016851E8031F02688A
:1023900021F0100142E803134BB1016851E8031F1B
:1023A000026821F0100142E80313002BDAD1016822
:1023B0000A68D20606D5002200920A68009249688F
:1023C00000910099818D01B0FEF7C0BF026852688C
:1023D0006FF35F2221F8022B8162A5E701B0FFF7BE
:1023E00077BB000010B504460068D4E902C2236937
:1023F000016921F4405111430161626943EA0C0112
:10240000E3691143C268194349F20C639A431143CB
:10241000C1604169A26921F4407141F20043114356
:1024200040F48062C4F201039A42416102D1FEF796
:10243000CBFA01E0FEF7B4FAE16963681922B1F55D
:10244000004FA0FB020123D15A00DB0FFDF7CAFEAB
:1024500048F21F51C5F2EB11A0FB01235A094FF6B8
:102460009C73C0F6FF7303F1805302FB0300322319
:1024700003EBC000A0FB01014FF4F87000EA11105B
:1024800000EB0210C1F3421108442168886010BDBE
:102490009A009B0FFDF7A6FE48F21F51C5F2EB1103
:1024A000A0FB01235A094FF69C73C0F6FF7302FB91
:1024B0000300322303EB0010A0FB0101F02000EA2F
:1024C000511000EB0210C1F34311084421688860E9
:1024D00010BD000040F21410C2F20000FEF73ABF37
:1024E00040F2A410C2F20000FEF734BFFEE7000085
:1024F00040F22801C2F200010A7801F10803985461
:102500000B7A501C282B08700FD1C0B2062818BFB8
:102510007047C87A292808D1487B0A2805D1B1F824
:102520000900A1F8030001204870002008707047DE
:1025300040F2C801C2F20001087800281CBF002246
:102540000A70002818BF01207047000010B540F243
:102550002804C2F20004A1780020022910D0012929
:1025600010D071B940F2A411C2F200014F2000F066
:1025700077FEFEF767F8E0800120A070002010BD14
:10258000A07010BD0020C4F202002021FEF74CF81C
:10259000FEF758F8B4F90610401AB0F57A7F4FF0FC
:1025A0000000EED36178002908BF10BD4FF4007021
:1025B000A4F80100012010BD82B0FEF757F8FFF724
:1025C00073FDFFF769FBFFF73FFCFFF793FCFFF795
:1025D000AFFCFFF771FC40F2CC00C2F20000FEF746
:1025E000DDFC40F2A41040F28C21C2F20000C2F2E5
:1025F00000010122FFF742FA00204FF47A71002512
:1026000000F0E0FD0120142100F0DCFD40F25C143C
:10261000C2F200040020002100220023CDE9005472
:10262000FDF78AFE41F20004C4F20204002000F02B
:10263000D7FD18B120460821FDF7F6FF012000F074
:10264000CFFD0028F2D000F0C1F8EFE7F0B585B07B
:1026500040F22005C2F2000595ED000A40F25C143C
:10266000BDEEC00A10EE102AC2F2000400264FF49C
:102670008A57012000210023CDE9007602960394B9
:10268000FDF726FE0A20FDF7D7FE95ED000A022091
:10269000BDEEC00A10EE102A01210023CDE900761C
:1026A00002960394FDF714FE4FF4617005B0BDE887
:1026B000F040FDF7C1BE00002DE9F04184B00446B2
:1026C0004FF4FA70FDF7B8FE40F22006C2F20006A1
:1026D00096ED000A40F25C18BDEEC00A10EE102A1A
:1026E000C2F2000800274FF40C65012021460023A8
:1026F000CDE900570297CDF80C80FDF7E9FD0A20DF
:10270000FDF79AFE96ED000AB4FA84F0BDEEC00A19
:10271000410910EE102A02200023CDE9005702974C
:10272000CDF80C80FDF7D4FD4FF4167004B0BDE871
:10273000F041FDF781BE0000F0B583B040F2EC102F
:1027400040F29404C2F20000C2F20004C16C94EDA5
:10275000090AD4ED0A0A884740F20006C2F20006D0
:1027600096ED041A84ED0B0A30EE010ABDEEC00AA4
:10277000B37840F25C1510EE102AC2F20005002773
:1027800001200021CDE90075FDF7D6FD0A20FDF7F7
:1027900053FE40F23C20C2F20000C16C94ED090AE5
:1027A000D4ED0A0A884796ED041A84ED0C0A30EE3F
:1027B000010ABDEEC00AB37810EE102A02200021F3
:1027C000CDE90075FDF7B8FD03B0F0BD2DE9F0418E
:1027D00084B040F29405C2F2000528780A2800F27D
:1027E0006284DFE810F00B0047005B0065007500B5
:1027F0009500BB00CB00E90055017B0140F20006CB
:10280000C2F2000640F2EC14D5ED080A96ED020A79
:1028100096ED031AC2F20004204600F049FC05F1CF
:102820001400616C96ED010AD0EC030A204688473B
:1028300096ED020A96ED031A95ED082A40F23C2423
:10284000C2F20004B1EE400AF1EE420AB1EE411AC2
:10285000204600F02DFC05F11400616C96ED010A94
:10286000D0EC030A204688470120287004B0BDE858
:10287000F08100BFFFF76AFE002800F0148440F2E8
:102880002B00C2F20000007840F20001C2F2000109
:1028900008700220287004B0BDE8F081FFF748FE00
:1028A000002800F000840320287004B0BDE8F08107
:1028B00040F20000C2F2000000783138C1B20129B4
:1028C00000F23081A8700420287004B0BDE8F081C7
:1028D000FFF76EFB0446FFF7D7FB00EE100A68789F
:1028E000B8EEC00A092885ED0A0A00F2DC83DFE8A9
:1028F00010F00B00A9029D01C902DD02E3020B00EA
:10290000E7029D01090300BF2046FFF737FB90E176
:10291000FFF74EFB0446FFF7B7FB00EE100AE8781E
:10292000B8EEC00A022885ED0A0A00F033810128BA
:1029300000F03E81002840F0B6832046FFF71EFBE2
:10294000002859D0FDF77EFEE989401A40F6C411EF
:10295000884251D3E8780130E8704DE040F2000041
:1029600040F22B01C2F20000C2F2000100780A78A6
:10297000904240F0DF800020E0E000BFFFF718FB4E
:102980000446FFF781FB00EE100A2879B8EEC00A72
:10299000082885ED0A0A00F28683DFE810F0F701C7
:1029A000090033010D02110215022D020900330145
:1029B0002046FFF7F9FA0AE2FFF7FAFA0446FFF7B2
:1029C00063FB00EE100AA879B8EEC00A012885ED75
:1029D0000A0A00F0B980002840F065832046FFF71E
:1029E000CDFA48B1FDF72EFE298A401AB0F5FA6FEC
:1029F00002D3A8790130A87140F20004C2F20004A9
:102A00006088013081B240F2EC10C2F20000FF2970
:102A100028BFFF21C26C95ED090AD5ED0A0A618035
:102A2000904794ED041A85ED0B0A30EE010ABDEED5
:102A3000C00AA37840F25C1610EE102AC2F200061B
:102A4000002701200021CDE90076FDF775FC0A2062
:102A5000FDF7F2FC40F23C20C2F20000C16C95EDA3
:102A6000090AD5ED0A0A884794ED041A85ED0C0A87
:102A700030EE010ABDEEC00AA37810EE102A022043
:102A80000021CDE90076FDF757FC04B0BDE8F081E8
:102A9000E879042800F20783DFE810F00600D2008E
:102AA000E4000C01300100BF40F25C14C2F20004EB
:102AB00000264FF4207701200021C822C823CDE949
:102AC000007602960394FDF703FC0A20FDF7B4FCA0
:102AD00002200121CDE900760296DCE0FFF768FADA
:102AE0000446FFF7D1FA00EE100A287AB8EEC00AC1
:102AF0000E2885ED0A0A00F2D682DFE810F01F02E8
:102B00000F003D029F02B7023F012B015902CF0285
:102B10000F005F020F007D023F012B012046FFF7EF
:102B20002DFA2EE105202870FDF78CFDE88104B018
:102B3000BDE8F081497888425CD1012068710720A6
:102B4000287004B0BDE8F08140F20000C2F200003D
:102B500090ED040A40F25C17BDEEC00A00204FF46D
:102B6000965110EE102AC2F20007CDE900100121A3
:102B7000C82302900397FDF7ABFB4FF47A70FDF783
:102B80005BFCA8790130A8710920287004B0BDE869
:102B9000F08100BFFFF7DAFC002800F08482E878BB
:102BA0000130E8700620287004B0BDE8F08100BF55
:102BB00040F20000C2F2000090ED040AD2214180F0
:102BC000BDEEC00A40F25C1700204FF4965110EEA3
:102BD000102AC2F20007CDE900100121C82302909B
:102BE0000397FDF775FBE8780130E87004B0BDE8A5
:102BF000F08100BFFDF726FD28820820287004B070
:102C0000BDE8F08140F20000C2F20000D22140F2A3
:102C10005C174180C2F2000700260020002100223C
:102C20000023CDE90067FDF787FB05E12046FFF7AC
:102C3000BBF9002800F0CF80687801306870CAE0E6
:102C4000FFF784FC002800F02E8240F22B00C2F235
:102C500000000088E979A5F80B00481CE87104B071
:102C6000BDE8F08140F25C14C2F2000400264FF48B
:102C7000A06701200121C822C823CDE90076029671
:102C80000394FDF725FB0A20FDF7D6FBCDE900767E
:102C9000029602200021C822C8230394FDF718FBE6
:102CA0004FF4FA70FDF7C8FBE8790130E87104B021
:102CB000BDE8F081FFF74AFC002800F0F48140F203
:102CC0000000C2F200000078E97A2A7B411A18BF9E
:102CD0000121821A18BF01221140012940F0E6812A
:102CE00040F22B02C2F200021378984200F0DE811B
:102CF0005278904208BF6972D6E700BF40F25C1478
:102D0000C2F2000400264FF4207701200021C822DF
:102D1000C823CDE9007602960394FDF7D9FA0A207C
:102D20004FF00A08FDF788FB02200121C822C823C2
:102D3000CDE9007602960394FDF7CAFA4FF4C87005
:102D4000FDF77AFBE87985F800800130E87104B07E
:102D5000BDE8F08140F20000C2F20000D22140F252
:102D60005C174180C2F200070026002000210022EB
:102D70000023CDE90067FDF7DFFA91E12046FFF778
:102D800013F940B3287A0130287224E040F25C172E
:102D900000204FF4AC51C2F20007CDE90010002131
:102DA000C822C82302900397FDF792FA4FF4FA70F5
:102DB000FDF742FB68793DE0FFF7BAFBE0BB72E14B
:102DC000FFF744FC38E000BF2046FFF7D7F810B10A
:102DD00028790130287140F20000C2F200004188D9
:102DE000013189B2FF2928BFFF21418004B0BDE82D
:102DF000F041FFF7A1BC00BF40F20000C2F20000AA
:102E000090ED040AD2214180BDEEC00A40F25C1769
:102E100000204FF4A86110EE102AC2F20007CDE99D
:102E200000100021002302900397FDF751FA687902
:102E300080F00100FFF740FC28790130287104B0D0
:102E4000BDE8F08140F20000C2F2000090ED040AFB
:102E5000D2214180BDEEC00A40F25C1700204FF441
:102E6000A86110EE102AC2F20007CDE9001000217F
:102E7000002302900397FDF72BFAA878FFF71CFCBC
:102E800056E000BF40F20000C2F20000D22140F242
:102E90005C174180C2F200070026002000210022BA
:102EA000F023CDE90067FDF747FA41E0FFF740FB6B
:102EB00000283DD1F7E000BFFFF7C8FB38E000BFB6
:102EC00040F20000C2F2000090ED040AD2214180DD
:102ED000BDEEC00A40F25C1700204FF4A86110EE6E
:102EE000102AC2F20007CDE9001000210023029051
:102EF0000397FDF7EDF9A878B0FA80F04009FFF7E5
:102F0000DBFB15E040F20000C2F20000D22140F2EB
:102F10005C174180C2F20007002600200021002239
:102F20000023CDE90067FDF707FA0A20FDF784FAD0
:102F300068780130687004B0BDE8F08140F20000AC
:102F4000C2F20000D221418040F25C1700204FF411
:102F5000AC51C2F20007CDE900100021C822C823FD
:102F600002900397FDF7B4F94FF4FA70FDF764FA95
:102F7000687AFFF7A1FB93E040F20000C2F2000084
:102F800090ED040AD2214180BDEEC00A40F25C17E8
:102F900000204FF4965110EE102AC2F20007CDE93E
:102FA00000100121C82302900397FDF791F977E003
:102FB000FFF7BEFA002873D175E000BF40F20000B1
:102FC000C2F2000090ED040AD2214180BDEEC00A99
:102FD00040F25C1700204FF4A86110EE102AC2F2F4
:102FE0000007CDE900100021002302900397FDF7B0
:102FF0006FF9A87A1CE000BF40F20000C2F20000A6
:1030000090ED040AD2214180BDEEC00A40F25C1767
:1030100000204FF4A86110EE102AC2F20007CDE99B
:1030200000100021002302900397FDF751F9687A00
:1030300080F00100FFF740FB32E000BFFFF786FAA7
:1030400088B340F2000040F22B02C2F20000C2F24C
:10305000000200781178884202D0527890421FD145
:10306000401A18BF0120A8721AE000BF40F25C1796
:1030700000204FF4AC51C2F20007CDE9001000214E
:10308000C822C82302900397FDF722F94FF4FA7083
:10309000FDF7D2F9A87AFFF70FFB01E0FFF7D6FAA8
:1030A000287A0130287204B0BDE8F0816972FBE52E
:1030B00043F2A511C0F6000143F29D1243F2D90379
:1030C00000F1440CC0F60002C0F600038CE80E00CC
:1030D00080EC030A7047000090F84010002200299D
:1030E000C2621CBF9FED2C0A704700F1180190EDE1
:1030F0000A2A30EE601A81EC030A90ED000A90ED86
:103100000E3A31EE022A21EE000AB4EE432A80ED97
:10311000030AF1EE10FA80ED0A2AC4BF80ED0A3AE4
:10312000B0EE432A90ED0F3AB4EE432AF1EE10FAD6
:10313000BCBF80ED0A3AB0EE432A90ED014A90ED13
:10314000096A90ED025A24EE022A31EE464A90EDC9
:103150000C3A25EE044A30EE020A30EE040AB4EED0
:10316000430A80ED042A80ED054A80ED091AF1EE4C
:1031700010FA80ED0B0AC4BF80ED0B3AB0EE430AA3
:1031800090ED0D1AB4EE410AF1EE10FABCBF80EDDD
:103190000B1AB0EE410A70470000000080F84010A2
:1031A0007047000000F1300181EC040A0021C0E901
:1031B0000311416180F84010C0E90811C0E90A110B
:1031C0007047000040F2962C00EB4000C2F2000C69
:1031D0000CEB400300220CF810205A8099807047B5
:1031E00040F2962200EB4001C2F2000212F81100F8
:1031F00000281EBF02EB410100220A70002818BF00
:103200000120704740F29620C2F200004188828877
:1032100001318BB29342418005D9017819B900215F
:103220004180012101700189428901318BB29342B1
:10323000018105D9817919B90021018101218171AB
:10324000C189028A01318BB29342C18107D9017BC6
:10325000002918BF70470021C18101210173704707
:1032600080B582B00A468DF807000DF107011046BF
:1032700001224FF6FF73FEF74FFC02B080BD000045
:10328000F0B581B0144600228DF802208DF802209E
:103290009DF802208A4218D20D4606460DF103071A
:1032A0009DF802003946305C01228DF8030020466B
:1032B0004FF6FF73FEF730FC9DF8020001308DF8E9
:1032C00002009DF80200A842EAD301B0F0BD02E07E
:1032D00008C8121F08C1002AFAD1704770470020A1
:1032E00001E001C1121F002AFBD17047000000005D
:1032F00000000000010203040607080900000000A6
:103300000102030428330008000000202800000008
:10331000CE32000850330008280000208806000044
:10332000DE320008000000003500D2000000C84373
:1033300000000C420000F0C10000F042010000005B
:10334000100000000024F4000000344300000000DE
:04000005080001AD41
:00000001FF
